:020000040800F2
:1000000038070020CD010008D1010008D301000805
:10001000D5010008D7010008D90100080000000040
:10002000000000000000000000000000DB010008EC
:10003000DD01000800000000DF010008E101000808
:10004000FD050008E3010008E3010008E3010008E2
:10005000E3010008E301000875020008E30100085D
:10006000E3010008A9020008F5020008E301000806
:10007000E3010008E3010008E3010008E3010008D0
:10008000E3010008E3010008E3010008E3010008C0
:10009000E3010008E3010008E3010008E3010008B0
:1000A000E3010008E3010008E3010008E3010008A0
:1000B000E3010008A5040008E3010008E3010008CB
:1000C000E3010008E3010008E3010008E301000880
:1000D000E301000879050008E3010008E3010008D6
:1000E000E3010008E3010008E3010008E301000860
:1000F000E3010008E3010008E3010008E301000850
:10010000E3010008E3010008E3010008E30100083F
:10011000E3010008E3010008E3010008E30100082F
:10012000E3010008E3010008E3010008E30100081F
:1001300000F002F800F03AF80AA090E8000C8244BF
:100140008344AAF10107DA4501D100F02FF8AFF29C
:10015000090EBAE80F0013F0010F18BFFB1A43F0A5
:1001600001031847A0050000C0050000103A24BF95
:1001700078C878C1FAD8520724BF30C830C144BF0C
:1001800004680C607047000000230024002500264E
:10019000103A28BF78C1FBD8520728BF30C148BFEA
:1001A0000B6070471FB51FBD10B510BD00F02FF8D4
:1001B0001146FFF7F7FF00F081FA00F04DF803B4A5
:1001C000FFF7F2FF03BC00F039FA000008480047CF
:1001D000FEE7FEE7FEE7FEE7FEE7FEE7FEE7FEE7F7
:1001E000FEE7FEE703480449044A054B7047000058
:1001F00031010008380100203807002038030020B2
:100200003803002070477047704770477047754645
:1002100000F02CF8AE4605006946534620F0070072
:10022000854618B020B5FFF7DDFFBDE820404FF050
:1002300000064FF000074FF000084FF0000B21F0D0
:100240000701AC46ACE8C009ACE8C009ACE8C0099D
:10025000ACE8C0098D46704710B50446AFF3008086
:100260002046BDE81040FFF7AABF000000487047D5
:10027000D400002010B50A2000F002FA07480068F8
:10028000012807D10648006808B9012000E00020D5
:100290000349086001200349086010BD00012142A4
:1002A000A08121421404014010B50A2000F0E8F9B1
:1002B0000C48006888B90C48006808B9012000E0C3
:1002C0000020094908600948D0F8940108B90120C4
:1002D00000E00020034988310860082004490860D4
:1002E00010BD00000C0123429481214200002342F2
:1002F0001404014010B50A2000F0C2F90748006854
:1003000038B90748006808B9012000E00020044916
:10031000086010200349086010BD0000100123424E
:1003200094812142140401401848806940F008007B
:10033000164988610846806940F040008861144889
:10034000006820F47000124908600846006840F414
:10035000401008600E480C30006840F020000C4946
:100360000C3108600B48006820F4700009490860EF
:100370000846006840F44010086006480C300068E9
:1003800040F0200003490C31086070470010024023
:10039000000C01400018014000B50020154908611B
:1003A000C8601420486100208861C8610846006860
:1003B00040F001000860084640680F4908400D49B8
:1003C0004860084600680D4908400A490860084628
:1003D000006820F4802008600846406820F4FE0091
:1003E00048600020886000214FF0006000F008F8AD
:1003F00000BD0000001002400000FFF8FFFFF6FE05
:10040000024A0A400243024B1A60704780FFFF1FF6
:1004100008ED00E030B504460025FFF7BDFF1F489A
:10042000006840F480301D49086000BF1B48006828
:10043000400C0028FAD04FF4806018494860A01E94
:10044000C4B20846406840EA8440486008464068B4
:1004500040F4803048601248006840F03200104993
:1004600008600E48006840F080700C49086000BFCA
:100470000A480068400E0028FAD00848406840F05A
:1004800002000649486005E004484068C0F387055B
:1004900005F00305022DF7D130BD00000010024029
:1004A000002002400948008800F0010038B10848E7
:1004B000006808B9012000E00020054908600348F1
:1004C000008820F0010001490880704710040040B6
:1004D00094812142244AD26942F00202224BDA611D
:1004E0001A46926942F008029A61204A126822F480
:1004F00070021E4B1A601A46126842F430021A60EB
:10050000194A926942F00102174B9A61184A5268DF
:1005100022F44062164B5A601A46526842F4006256
:100520005A60144A1080121F1180124A143A12881D
:1005300042F4E0420F4B143B1A801A46128842F4F0
:1005400000621A800B4A0C3A128842F01002094BE2
:100550000C3B1A808022074B2C3B1A801A461288CB
:1005600042F001021A80704700100240000C014066
:10057000000001402C0400401D49098801F02001C1
:1005800011B31B49091D0988C8B21A49098801F429
:100590000041C9B91749098801F4804161B10A28AD
:1005A00003D00021134A118020E01249098841F448
:1005B0000041104A118019E00D2806D10D49098823
:1005C00041F480410B4A118010E00A490988C1F3C7
:1005D0000D01094A505407490988491C054A1180F0
:1005E00011460988C72901DD0021118070470000EC
:1005F00000380140080000200C00002000B5084829
:10060000007800F013F800200649086006480068EA
:1006100008B9012000E000200349086000BD000087
:100620000A000020082C00409401234200F07F01C2
:10063000014A116070470000002C004000BF704765
:100640004FF0E021096921F004014FF0E02211612F
:10065000C21700EB5272C2F3C702074B1A70194659
:10066000097801EB4102C2EBC1114FF6FF7202EAB9
:10067000C101024A118070470000002002000020E2
:1006800001460D4A12884A434FF0E0235A61002286
:100690009A6101221A6100BF4FF0E022106900F058
:1006A00001021AB100F48032002AF5D000224FF086
:1006B000E0231A619A61704702000020002401259E
:1006C0000920FFF7A7FE4820FFF7BAFFFFF72CFE2F
:1006D000002140F28330FFF7FDFE10E00A20FFF713
:1006E000CFFF15B1601C84B201E0601E84B2B4F586
:1006F000967F00DD002504B9012501480480EDE75F
:100700003804004024070008000000200C0000000E
:100710006C010008300700080C0000202C070000C6
:1007200088010008000000000000000000007F00B9
:0400000508000131BD
:00000001FF
