:020000040800F2
:1000000038070020CD010008D1010008D301000805
:10001000D5010008D7010008D90100080000000040
:10002000000000000000000000000000DB010008EC
:10003000DD01000800000000DF010008E101000808
:10004000E3010008E3010008E3010008E301000800
:10005000E3010008E3010008E3010008E3010008F0
:10006000E3010008E3010008E3010008E3010008E0
:10007000E3010008E3010008E3010008E3010008D0
:10008000E3010008E3010008E3010008E3010008C0
:10009000E3010008E3010008E3010008E3010008B0
:1000A000E3010008E3010008E3010008E3010008A0
:1000B000E3010008E3010008E3010008E301000890
:1000C000E3010008E3010008E3010008E301000880
:1000D000E301000829040008E3010008E301000827
:1000E000E3010008E3010008E3010008E301000860
:1000F000E3010008E3010008E3010008E301000850
:10010000E3010008E3010008E3010008E30100083F
:10011000E3010008E3010008E3010008E30100082F
:10012000E3010008E3010008E3010008E30100081F
:1001300000F002F800F03AF80AA090E8000C8244BF
:100140008344AAF10107DA4501D100F02FF8AFF29C
:10015000090EBAE80F0013F0010F18BFFB1A43F0A5
:10016000010318472C0400004C040000103A24BF7F
:1001700078C878C1FAD8520724BF30C830C144BF0C
:1001800004680C607047000000230024002500264E
:10019000103A28BF78C1FBD8520728BF30C148BFEA
:1001A0000B6070471FB51FBD10B510BD00F02FF8D4
:1001B0001146FFF7F7FF00F0B9F900F04DF803B46E
:1001C000FFF7F2FF03BC00F071F900000848004798
:1001D000FEE7FEE7FEE7FEE7FEE7FEE7FEE7FEE7F7
:1001E000FEE7FEE703480449044A054B7047000058
:1001F00031010008380100203807002038030020B2
:100200003803002070477047704770477047754645
:1002100000F02CF8AE4605006946534620F0070072
:10022000854618B020B5FFF7DDFFBDE820404FF050
:1002300000064FF000074FF000084FF0000B21F0D0
:100240000701AC46ACE8C009ACE8C009ACE8C0099D
:10025000ACE8C0098D46704710B50446AFF3008086
:100260002046BDE81040FFF7AABF000000487047D5
:10027000D40000200A48806940F0080008498861DD
:100280000848006820F00F0006490860084600682A
:1002900040F0030008600020034908607047000038
:1002A00000100240040C0140A081214218488069DE
:1002B00040F00800164988610846806940F0400017
:1002C00088611448006820F47000124908600846EC
:1002D000006840F4401008600E480C30006840F0A0
:1002E00020000C490C3108600B48006820F47000B5
:1002F000094908600846006840F440100860064854
:100300000C30006840F0200003490C310860704751
:1003100000100240000C01400018014000B5002010
:1003200015490861C8601420486100208861C861CF
:100330000846006840F001000860084640680F4920
:1003400008400D494860084600680D4908400A49C0
:1003500008600846006820F480200860084640686D
:1003600020F4FE0048600020886000214FF000600B
:1003700000F008F800BD0000001002400000FFF887
:10038000FFFFF6FE024A0A400243024B1A60704722
:1003900080FFFF1F08ED00E030B504460025FFF7A1
:1003A000BDFF1F48006840F480301D49086000BF51
:1003B0001B480068400C0028FAD04FF480601849B0
:1003C0004860A01EC4B20846406840EA84404860C5
:1003D0000846406840F4803048601248006840F0A9
:1003E0003200104908600E48006840F080700C49E7
:1003F000086000BF0A480068400E0028FAD008488C
:10040000406840F002000649486005E00448406842
:10041000C0F3870505F00305022DF7D130BD0000BC
:1004200000100240002002401D49098801F020010F
:1004300011B31B49091D0988C8B21A49098801F47A
:100440000041C9B91749098801F4804161B10A28FE
:1004500003D00021134A118020E01249098841F499
:100460000041104A118019E00D2806D10D49098874
:1004700041F480410B4A118010E00A490988C1F318
:100480000D01094A505407490988491C054A118041
:1004900011460988C72901DD00211180704700003D
:1004A00000380140080000200C00002000BF704709
:1004B0004FF0E021096921F004014FF0E0221161C1
:1004C000C21700EB5272C2F3C702074B1A701946EB
:1004D000097801EB4102C2EBC1114FF6FF7202EA4B
:1004E000C101024A11807047000000200200002074
:1004F00001460D4A12884A434FF0E0235A61002218
:100500009A6101221A6100BF4FF0E022106900F0E9
:1005100001021AB100F48032002AF5D000224FF017
:10052000E0231A619A617047020000200920FFF75A
:1005300033FF4820FFF7BCFFFFF7B8FEFFF79AFE36
:100540001CE000200E49086001200E49C1F894010A
:1005500000200B490C3108604FF4FA70FFF7C8FF18
:100560000120074908600020074908600120074969
:10057000C1F8A0014FF4FA70FFF7BAFFE1E70000FD
:1005800094812142000023429401234200802142B1
:10059000B0050008000000200C0000006C010008FD
:1005A000BC0500080C0000202C0700008801000892
:0C05B0000000000000000000000000003F
:0400000508000131BD
:00000001FF
